{
  "contractName": "QuestionPool",
  "abi": [
    {
      "constant": false,
      "inputs": [
        {
          "name": "rec",
          "type": "address"
        },
        {
          "name": "qst",
          "type": "string"
        },
        {
          "name": "rwd",
          "type": "uint256"
        },
        {
          "name": "bns",
          "type": "uint256"
        }
      ],
      "name": "ask",
      "outputs": [],
      "payable": true,
      "stateMutability": "payable",
      "type": "function"
    },
    {
      "constant": true,
      "inputs": [],
      "name": "haveAsked",
      "outputs": [
        {
          "name": "",
          "type": "address[]"
        }
      ],
      "payable": false,
      "stateMutability": "view",
      "type": "function"
    },
    {
      "constant": true,
      "inputs": [],
      "name": "haveAnsed",
      "outputs": [
        {
          "name": "",
          "type": "address[]"
        }
      ],
      "payable": false,
      "stateMutability": "view",
      "type": "function"
    }
  ],
  "bytecode": "0x6060604052341561000f57600080fd5b61121f8061001e6000396000f300606060405260043610610057576000357c0100000000000000000000000000000000000000000000000000000000900463ffffffff1680633935011b1461005c578063775d1cca146100c6578063a6309cdd14610149575b600080fd5b341561006757600080fd5b61006f6101b3565b6040518080602001828103825283818151815260200191508051906020019060200280838360005b838110156100b2578082015181840152602081019050610097565b505050509050019250505060405180910390f35b610147600480803573ffffffffffffffffffffffffffffffffffffffff1690602001909190803590602001908201803590602001908080601f01602080910402602001604051908101604052809392919081815260200183838082843782019150505050505091908035906020019091908035906020019091905050610284565b005b341561015457600080fd5b61015c610518565b6040518080602001828103825283818151815260200191508051906020019060200280838360005b8381101561019f578082015181840152602081019050610184565b505050509050019250505060405180910390f35b6101bb6105e8565b600160003373ffffffffffffffffffffffffffffffffffffffff1673ffffffffffffffffffffffffffffffffffffffff16815260200190815260200160002080548060200260200160405190810160405280929190818152602001828054801561027a57602002820191906000526020600020905b8160009054906101000a900473ffffffffffffffffffffffffffffffffffffffff1673ffffffffffffffffffffffffffffffffffffffff1681526020019060010190808311610230575b5050505050905090565b600061028e6105fc565b604051809103906000f08015156102a457600080fd5b90506000803373ffffffffffffffffffffffffffffffffffffffff1673ffffffffffffffffffffffffffffffffffffffff16815260200190815260200160002080548060010182816102f6919061060c565b9160005260206000209001600083909190916101000a81548173ffffffffffffffffffffffffffffffffffffffff021916908373ffffffffffffffffffffffffffffffffffffffff16021790555050600160008673ffffffffffffffffffffffffffffffffffffffff1673ffffffffffffffffffffffffffffffffffffffff1681526020019081526020016000208054806001018281610396919061060c565b9160005260206000209001600083909190916101000a81548173ffffffffffffffffffffffffffffffffffffffff021916908373ffffffffffffffffffffffffffffffffffffffff160217905550508073ffffffffffffffffffffffffffffffffffffffff1663775d1cca34878787876040518663ffffffff167c0100000000000000000000000000000000000000000000000000000000028152600401808573ffffffffffffffffffffffffffffffffffffffff1673ffffffffffffffffffffffffffffffffffffffff16815260200180602001848152602001838152602001828103825285818151815260200191508051906020019080838360005b838110156104af578082015181840152602081019050610494565b50505050905090810190601f1680156104dc5780820380516001836020036101000a031916815260200191505b50955050505050506000604051808303818588803b15156104fc57600080fd5b6125ee5a03f1151561050d57600080fd5b505050505050505050565b6105206105e8565b6000803373ffffffffffffffffffffffffffffffffffffffff1673ffffffffffffffffffffffffffffffffffffffff1681526020019081526020016000208054806020026020016040519081016040528092919081815260200182805480156105de57602002820191906000526020600020905b8160009054906101000a900473ffffffffffffffffffffffffffffffffffffffff1673ffffffffffffffffffffffffffffffffffffffff1681526020019060010190808311610594575b5050505050905090565b602060405190810160405280600081525090565b604051610b968061065e83390190565b815481835581811511610633578183600052602060002091820191016106329190610638565b5b505050565b61065a91905b8082111561065657600081600090555060010161063e565b5090565b9056006060604052341561000f57600080fd5b610b788061001e6000396000f3006060604052600436106100c5576000357c0100000000000000000000000000000000000000000000000000000000900463ffffffff168063228cb733146100ca5780632852b71c146100f35780634c1312611461010857806367e404ce1461019657806375535c89146101eb57806375b4d78c14610279578063775d1cca146102a257806379317680146103255780639d9a7fe914610352578063b2a4a50e1461037f578063d0814eb8146103dc578063ea8a1af014610409578063f7260d3e1461041e575b600080fd5b34156100d557600080fd5b6100dd610473565b6040518082815260200191505060405180910390f35b34156100fe57600080fd5b610106610479565b005b341561011357600080fd5b61011b6105d7565b6040518080602001828103825283818151815260200191508051906020019080838360005b8381101561015b578082015181840152602081019050610140565b50505050905090810190601f1680156101885780820380516001836020036101000a031916815260200191505b509250505060405180910390f35b34156101a157600080fd5b6101a9610675565b604051808273ffffffffffffffffffffffffffffffffffffffff1673ffffffffffffffffffffffffffffffffffffffff16815260200191505060405180910390f35b34156101f657600080fd5b6101fe61069a565b6040518080602001828103825283818151815260200191508051906020019080838360005b8381101561023e578082015181840152602081019050610223565b50505050905090810190601f16801561026b5780820380516001836020036101000a031916815260200191505b509250505060405180910390f35b341561028457600080fd5b61028c610738565b6040518082815260200191505060405180910390f35b610323600480803573ffffffffffffffffffffffffffffffffffffffff1690602001909190803590602001908201803590602001908080601f0160208091040260200160405190810160405280939291908181526020018383808284378201915050505050509190803590602001909190803590602001909190505061073e565b005b341561033057600080fd5b6103386107fb565b604051808215151515815260200191505060405180910390f35b341561035d57600080fd5b61036561080e565b604051808215151515815260200191505060405180910390f35b341561038a57600080fd5b6103da600480803590602001908201803590602001908080601f01602080910402602001604051908101604052809392919081815260200183838082843782019150505050505091905050610821565b005b34156103e757600080fd5b6103ef61095c565b604051808215151515815260200191505060405180910390f35b341561041457600080fd5b61041c61096f565b005b341561042957600080fd5b610431610a81565b604051808273ffffffffffffffffffffffffffffffffffffffff1673ffffffffffffffffffffffffffffffffffffffff16815260200191505060405180910390f35b60025481565b6000809054906101000a900473ffffffffffffffffffffffffffffffffffffffff1673ffffffffffffffffffffffffffffffffffffffff163373ffffffffffffffffffffffffffffffffffffffff161415156104d457600080fd5b60001515600660029054906101000a900460ff1615151415156104f657600080fd5b60011515600660009054906101000a900460ff16151514151561051857600080fd5b6001600660016101000a81548160ff0219169083151502179055506001600660026101000a81548160ff021916908315150217905550600160009054906101000a900473ffffffffffffffffffffffffffffffffffffffff1673ffffffffffffffffffffffffffffffffffffffff166108fc6003549081150290604051600060405180830381858888f1935050505015156105b257600080fd5b60003073ffffffffffffffffffffffffffffffffffffffff16311415156105d557fe5b565b60048054600181600116156101000203166002900480601f01602080910402602001604051908101604052809291908181526020018280546001816001161561010002031660029004801561066d5780601f106106425761010080835404028352916020019161066d565b820191906000526020600020905b81548152906001019060200180831161065057829003601f168201915b505050505081565b6000809054906101000a900473ffffffffffffffffffffffffffffffffffffffff1681565b60058054600181600116156101000203166002900480601f0160208091040260200160405190810160405280929190818152602001828054600181600116156101000203166002900480156107305780601f1061070557610100808354040283529160200191610730565b820191906000526020600020905b81548152906001019060200180831161071357829003601f168201915b505050505081565b60035481565b336000806101000a81548173ffffffffffffffffffffffffffffffffffffffff021916908373ffffffffffffffffffffffffffffffffffffffff16021790555083600160006101000a81548173ffffffffffffffffffffffffffffffffffffffff021916908373ffffffffffffffffffffffffffffffffffffffff160217905550816002819055508060038190555082600490805190602001906107e3929190610aa7565b5034600354600254011415156107f557fe5b50505050565b600660019054906101000a900460ff1681565b600660029054906101000a900460ff1681565b600160009054906101000a900473ffffffffffffffffffffffffffffffffffffffff1673ffffffffffffffffffffffffffffffffffffffff163373ffffffffffffffffffffffffffffffffffffffff1614151561087d57600080fd5b60001515600660029054906101000a900460ff16151514151561089f57600080fd5b80600590805190602001906108b5929190610aa7565b506001600660006101000a81548160ff021916908315150217905550600160009054906101000a900473ffffffffffffffffffffffffffffffffffffffff1673ffffffffffffffffffffffffffffffffffffffff166108fc6002549081150290604051600060405180830381858888f19350505050151561093557600080fd5b6003543073ffffffffffffffffffffffffffffffffffffffff163114151561095957fe5b50565b600660009054906101000a900460ff1681565b6000809054906101000a900473ffffffffffffffffffffffffffffffffffffffff1673ffffffffffffffffffffffffffffffffffffffff163373ffffffffffffffffffffffffffffffffffffffff161415156109ca57600080fd5b60001515600660029054906101000a900460ff1615151415156109ec57600080fd5b6001600660026101000a81548160ff0219169083151502179055506000809054906101000a900473ffffffffffffffffffffffffffffffffffffffff1673ffffffffffffffffffffffffffffffffffffffff166108fc3073ffffffffffffffffffffffffffffffffffffffff16319081150290604051600060405180830381858888f193505050501515610a7f57600080fd5b565b600160009054906101000a900473ffffffffffffffffffffffffffffffffffffffff1681565b828054600181600116156101000203166002900490600052602060002090601f016020900481019282601f10610ae857805160ff1916838001178555610b16565b82800160010185558215610b16579182015b82811115610b15578251825591602001919060010190610afa565b5b509050610b239190610b27565b5090565b610b4991905b80821115610b45576000816000905550600101610b2d565b5090565b905600a165627a7a723058207eab302661eb4660b06f198feb8b348cd9781496aae0a8dba39f2e1f0cceb7e40029a165627a7a72305820ea14c87534be922f7b18a6a55ca6bbeac731d8cdfbde83404ef32ecd1cee299d0029",
  "source": "pragma solidity ^0.4.4;\n\nimport \"./Question.sol\";\n\ncontract QuestionPool {\n\n\tmapping (address => address[]) asked;\n\tmapping (address => address[]) ansed;\n\t\n\tfunction ask(address rec, string qst, uint rwd, uint bns)\n    public payable {\n\t\tQuestion question = new Question();\n\t\tasked[msg.sender].push(question);\n\t\tansed[rec].push(question);\n\t\tquestion.ask.value(msg.value)(rec,qst,rwd,bns);\n\t\t\n\t}\n\n\tfunction haveAsked()\n\tpublic view returns (address[]) {\n\t\treturn asked[msg.sender];\n\t}\n\n\tfunction haveAnsed()\n\tpublic view returns (address[]) {\n\t\treturn ansed[msg.sender];\n\t}\n}",
  "sourcePath": "/Users/YesProjectsTeam/repo/SpokenHeart/contracts/QuestionPool.sol",
  "compiler": {
    "name": "solc",
    "version": "0.4.19+commit.c4cbbb05.Emscripten.clang"
  },
  "schemaVersion": "2.0.0",
  "updatedAt": "2018-03-18T00:39:41.481Z"
}